:020000040800F2
:100000000008002095010008730100087301000832
:10001000730100087301000873010008000000006C
:100020000000000000000000000000007301000854
:10003000730100080000000073010008730100084C
:1000400070B40024002500260BE054F00F0406E0F5
:1000500024012D010B04F8D51300DBB21D43490028
:10006000761C082EF4D343681C40446043681D434B
:1000700045600024002500260BE054F00F0406E044
:1000800024012D010B04F8D51300DBB21D434900F8
:10009000761C082EF4D301680C4004600068A84266
:1000A00001D0012000E00020C0B270BC7047C268DF
:1000B0000A4202D00904016100E00161704710B5F5
:1000C0000C4800F01DF80C4C01224FF400512000A8
:1000D000FFF7B6FF4FF400512000FFF7E8FF0020C4
:1000E00004E0491C054A9142FBDB401C0628F1DA7A
:1000F0000021F7E7001002400010014020A1070096
:10010000016851F48031016001688903FCD54168C0
:1001100051F4E811416041684160416851F48071D7
:10012000416041684160016851F08071016001687F
:100130008901FCD5416851F002014160416809071D
:10014000FCD5816951F010018161704700F00DF814
:10015000002801D0AFF30080AFF300800020AFF3A0
:100160000080FFF7ACFF00F002F80120704700F0BC
:1001700001B8FEE70746384600F002F8FBE700004A
:1001800080B5AFF30080024A11001820ABBEFBE738
:1001900026000200AFF30080AFF30080FFF7D6FF28
:040000050800019559
:00000001FF
